{
  "contractName": "BountyDistribution",
  "abi": [
    {
      "constant": true,
      "inputs": [
        {
          "name": "",
          "type": "uint256"
        }
      ],
      "name": "questions",
      "outputs": [
        {
          "name": "hash",
          "type": "uint256"
        },
        {
          "name": "bounty",
          "type": "uint256"
        },
        {
          "name": "askerAddr",
          "type": "address"
        },
        {
          "name": "answerHash",
          "type": "uint256"
        }
      ],
      "payable": false,
      "stateMutability": "view",
      "type": "function"
    },
    {
      "inputs": [],
      "payable": false,
      "stateMutability": "nonpayable",
      "type": "constructor"
    },
    {
      "constant": false,
      "inputs": [
        {
          "name": "_answerer",
          "type": "address"
        },
        {
          "name": "_aHash",
          "type": "uint256"
        },
        {
          "name": "_qHash",
          "type": "uint256"
        }
      ],
      "name": "distributeBounty",
      "outputs": [],
      "payable": false,
      "stateMutability": "nonpayable",
      "type": "function"
    },
    {
      "constant": false,
      "inputs": [
        {
          "name": "_qHash",
          "type": "uint256"
        }
      ],
      "name": "refundBounty",
      "outputs": [],
      "payable": false,
      "stateMutability": "nonpayable",
      "type": "function"
    },
    {
      "constant": false,
      "inputs": [
        {
          "name": "_asker",
          "type": "address"
        },
        {
          "name": "_qHash",
          "type": "uint256"
        },
        {
          "name": "_bounty",
          "type": "uint256"
        }
      ],
      "name": "collectBounty",
      "outputs": [],
      "payable": true,
      "stateMutability": "payable",
      "type": "function"
    }
  ],
  "bytecode": "0x608060405234801561001057600080fd5b5033600160006101000a81548173ffffffffffffffffffffffffffffffffffffffff021916908373ffffffffffffffffffffffffffffffffffffffff1602179055506103f3806100616000396000f300608060405260043610610062576000357c0100000000000000000000000000000000000000000000000000000000900463ffffffff1680630f88f1a51461006757806331b1b978146100b1578063409ff7a61461013357806358b1f29c1461018a575b600080fd5b6100af600480360381019080803573ffffffffffffffffffffffffffffffffffffffff16906020019092919080359060200190929190803590602001909291905050506101b7565b005b3480156100bd57600080fd5b506100dc6004803603810190808035906020019092919050505061027e565b604051808581526020018481526020018373ffffffffffffffffffffffffffffffffffffffff1673ffffffffffffffffffffffffffffffffffffffff16815260200182815260200194505050505060405180910390f35b34801561013f57600080fd5b50610188600480360381019080803573ffffffffffffffffffffffffffffffffffffffff16906020019092919080359060200190929190803590602001909291905050506102ce565b005b34801561019657600080fd5b506101b56004803603810190808035906020019092919050505061033e565b005b8034101515156101c657600080fd5b6080604051908101604052808381526020018281526020018473ffffffffffffffffffffffffffffffffffffffff1681526020016000815250600080848152602001908152602001600020600082015181600001556020820151816001015560408201518160020160006101000a81548173ffffffffffffffffffffffffffffffffffffffff021916908373ffffffffffffffffffffffffffffffffffffffff16021790555060608201518160030155905050505050565b60006020528060005260406000206000915090508060000154908060010154908060020160009054906101000a900473ffffffffffffffffffffffffffffffffffffffff16908060030154905084565b600080600083815260200190815260200160002090508373ffffffffffffffffffffffffffffffffffffffff166108fc82600101549081150290604051600060405180830381858888f1935050505015801561032e573d6000803e3d6000fd5b5082816003018190555050505050565b600080600083815260200190815260200160002090508060020160009054906101000a900473ffffffffffffffffffffffffffffffffffffffff1673ffffffffffffffffffffffffffffffffffffffff166108fc82600101549081150290604051600060405180830381858888f193505050501580156103c2573d6000803e3d6000fd5b5050505600a165627a7a723058200f8959c0d093129aee13ba3c58d6fd9679ca3d31af719008fcd780508bef90ab0029",
  "source": "pragma solidity ^0.4.21;\n\ncontract BountyDistribution {\n    struct Question {\n        uint256 hash;\n        uint256 bounty;\n        address askerAddr;\n        uint256 answerHash;\n    }\n\n    mapping (uint256 => Question) public questions;\n    address contractCreator;\n\n    function BountyDistribution() public { // constructor\n        contractCreator = msg.sender;\n    }\n\n    function distributeBounty(address _answerer, uint256 _aHash, uint256 _qHash) public {\n        Question storage q = questions[_qHash];\n        _answerer.transfer(q.bounty);\n        q.answerHash = _aHash;\n    }\n\n    function refundBounty(uint256 _qHash) public {\n        Question storage q = questions[_qHash];\n        q.askerAddr.transfer(q.bounty);\n        // should we set answerHash to something?\n    }\n\n    function collectBounty(address _asker, uint256 _qHash, uint256 _bounty) public payable {\n        // can also use msg.sender and msg.value\n        // who controls whether bounty == msg.value\n        require(msg.value >= _bounty);\n        questions[_qHash] = Question({hash: _qHash, bounty: _bounty, askerAddr: _asker, answerHash: 0}); // there's no null\n    }\n\n    // kill function?\n    // fallback function?\n    // msg.value --> how much ether was spent in making this call\n    // error handling with whether or not questions[_qHash] exists\n}\n",
  "sourcePath": "/Users/claireshu/Documents/Spring 2018/CS359B/cs359b-tapioca/public/contracts/BountyDistribution.sol",
  "compiler": {
    "name": "solc",
    "version": "0.4.23+commit.124ca40d.Emscripten.clang"
  },
  "schemaVersion": "2.0.0",
  "updatedAt": "2018-05-06T04:58:34.102Z"
}