{
  "contractName": "BountyDistribution",
  "abi": [
    {
      "constant": true,
      "inputs": [
        {
          "name": "",
          "type": "uint256"
        }
      ],
      "name": "questions",
      "outputs": [
        {
          "name": "hash",
          "type": "uint256"
        },
        {
          "name": "bounty",
          "type": "uint256"
        },
        {
          "name": "askerAddr",
          "type": "address"
        },
        {
          "name": "answerHash",
          "type": "uint256"
        },
        {
          "name": "settled",
          "type": "bool"
        },
        {
          "name": "isValue",
          "type": "bool"
        }
      ],
      "payable": false,
      "stateMutability": "view",
      "type": "function"
    },
    {
      "inputs": [],
      "payable": false,
      "stateMutability": "nonpayable",
      "type": "constructor"
    },
    {
      "constant": false,
      "inputs": [
        {
          "name": "_answerer",
          "type": "address"
        },
        {
          "name": "_aHash",
          "type": "uint256"
        },
        {
          "name": "_qHash",
          "type": "uint256"
        }
      ],
      "name": "distributeBounty",
      "outputs": [],
      "payable": false,
      "stateMutability": "nonpayable",
      "type": "function"
    },
    {
      "constant": false,
      "inputs": [
        {
          "name": "_qHash",
          "type": "uint256"
        }
      ],
      "name": "refundBounty",
      "outputs": [],
      "payable": false,
      "stateMutability": "nonpayable",
      "type": "function"
    },
    {
      "constant": false,
      "inputs": [
        {
          "name": "_asker",
          "type": "address"
        },
        {
          "name": "_qHash",
          "type": "uint256"
        },
        {
          "name": "_bounty",
          "type": "uint256"
        }
      ],
      "name": "collectBounty",
      "outputs": [],
      "payable": true,
      "stateMutability": "payable",
      "type": "function"
    }
  ],
  "bytecode": "0x608060405234801561001057600080fd5b5033600160006101000a81548173ffffffffffffffffffffffffffffffffffffffff021916908373ffffffffffffffffffffffffffffffffffffffff1602179055506105a7806100616000396000f300608060405260043610610062576000357c0100000000000000000000000000000000000000000000000000000000900463ffffffff1680630f88f1a51461006757806331b1b978146100b1578063409ff7a61461014957806358b1f29c146101a0575b600080fd5b6100af600480360381019080803573ffffffffffffffffffffffffffffffffffffffff16906020019092919080359060200190929190803590602001909291905050506101cd565b005b3480156100bd57600080fd5b506100dc600480360381019080803590602001909291905050506102e6565b604051808781526020018681526020018573ffffffffffffffffffffffffffffffffffffffff1673ffffffffffffffffffffffffffffffffffffffff1681526020018481526020018315151515815260200182151515158152602001965050505050505060405180910390f35b34801561015557600080fd5b5061019e600480360381019080803573ffffffffffffffffffffffffffffffffffffffff169060200190929190803590602001909291908035906020019092919050505061035c565b005b3480156101ac57600080fd5b506101cb6004803603810190808035906020019092919050505061045f565b005b8034101515156101dc57600080fd5b60c0604051908101604052808381526020018281526020018473ffffffffffffffffffffffffffffffffffffffff1681526020016000815260200160001515815260200160011515815250600080848152602001908152602001600020600082015181600001556020820151816001015560408201518160020160006101000a81548173ffffffffffffffffffffffffffffffffffffffff021916908373ffffffffffffffffffffffffffffffffffffffff1602179055506060820151816003015560808201518160040160006101000a81548160ff02191690831515021790555060a08201518160040160016101000a81548160ff021916908315150217905550905050505050565b60006020528060005260406000206000915090508060000154908060010154908060020160009054906101000a900473ffffffffffffffffffffffffffffffffffffffff16908060030154908060040160009054906101000a900460ff16908060040160019054906101000a900460ff16905086565b60008082815260200190815260200160002060040160019054906101000a900460ff1680156103ab575060008082815260200190815260200160002060040160009054906101000a900460ff16155b15156103b657600080fd5b8273ffffffffffffffffffffffffffffffffffffffff166108fc600080848152602001908152602001600020600101549081150290604051600060405180830381858888f19350505050158015610411573d6000803e3d6000fd5b508160008083815260200190815260200160002060030181905550600160008083815260200190815260200160002060040160006101000a81548160ff021916908315150217905550505050565b60008082815260200190815260200160002060040160019054906101000a900460ff1680156104ae575060008082815260200190815260200160002060040160009054906101000a900460ff16155b15156104b957600080fd5b60008082815260200190815260200160002060020160009054906101000a900473ffffffffffffffffffffffffffffffffffffffff1673ffffffffffffffffffffffffffffffffffffffff166108fc600080848152602001908152602001600020600101549081150290604051600060405180830381858888f19350505050158015610549573d6000803e3d6000fd5b50600160008083815260200190815260200160002060040160006101000a81548160ff021916908315150217905550505600a165627a7a7230582008dbc9b09199f235ab1617eb8d69557be2c3fd90053474073db4ae4c5220bbc50029",
  "source": "pragma solidity ^0.4.21;\n\ncontract BountyDistribution {\n    struct Question {\n        uint256 hash;\n        uint256 bounty; // denominated in WEI. 1 ether = 10^18 wei\n        address askerAddr;\n        uint256 answerHash;\n        bool settled;\n        bool isValue; // checks for existence of key\n    }\n\n    mapping (uint256 => Question) public questions;\n    address contractCreator;\n\n    function BountyDistribution() public { // constructor\n        contractCreator = msg.sender;\n    }\n\n    function distributeBounty(address _answerer, uint256 _aHash, uint256 _qHash) public {\n        require(questions[_qHash].isValue && !questions[_qHash].settled);\n        _answerer.transfer(questions[_qHash].bounty);\n        questions[_qHash].answerHash = _aHash;\n        questions[_qHash].settled = true;\n    }\n\n    function refundBounty(uint256 _qHash) public {\n        require(questions[_qHash].isValue && !questions[_qHash].settled);\n        questions[_qHash].askerAddr.transfer(questions[_qHash].bounty);\n        questions[_qHash].settled = true;\n        // should we set answerHash to something?\n    }\n\n    function collectBounty(address _asker, uint256 _qHash, uint256 _bounty) public payable {\n        // can also use msg.sender and msg.value\n        // who controls whether bounty == msg.value\n        require(msg.value >= _bounty);\n        questions[_qHash] = Question({\n            hash: _qHash,\n            bounty: _bounty,\n            askerAddr: _asker,\n            settled: false,\n            isValue: true,\n            answerHash: 0}); // there's no null\n    }\n\n    // kill function?\n    // fallback function?\n    // msg.value --> how much ether was spent in making this call\n    // error handling with whether or not questions[_qHash] exists\n    // state is required or else refunds can be manipulated\n}\n",
  "sourcePath": "/Users/claireshu/Documents/Spring 2018/CS359B/cs359b-tapioca/public/contracts/BountyDistribution.sol",
  "compiler": {
    "name": "solc",
    "version": "0.4.23+commit.124ca40d.Emscripten.clang"
  },
  "schemaVersion": "2.0.0",
  "updatedAt": "2018-05-13T22:20:14.155Z"
}