{
  "contractName": "BountyDistribution",
  "abi": [
    {
      "constant": true,
      "inputs": [
        {
          "name": "",
          "type": "uint256"
        }
      ],
      "name": "questions",
      "outputs": [
        {
          "name": "hash",
          "type": "uint256"
        },
        {
          "name": "bounty",
          "type": "uint256"
        },
        {
          "name": "askerAddr",
          "type": "address"
        },
        {
          "name": "minExecutionDate",
          "type": "uint256"
        },
        {
          "name": "numAnswers",
          "type": "uint256"
        },
        {
          "name": "settled",
          "type": "bool"
        },
        {
          "name": "isValue",
          "type": "bool"
        }
      ],
      "payable": false,
      "stateMutability": "view",
      "type": "function"
    },
    {
      "inputs": [],
      "payable": false,
      "stateMutability": "nonpayable",
      "type": "constructor"
    },
    {
      "anonymous": false,
      "inputs": [
        {
          "indexed": true,
          "name": "_address",
          "type": "address"
        },
        {
          "indexed": false,
          "name": "qHash",
          "type": "uint256"
        }
      ],
      "name": "QuestionCreated",
      "type": "event"
    },
    {
      "anonymous": false,
      "inputs": [
        {
          "indexed": true,
          "name": "_address",
          "type": "address"
        }
      ],
      "name": "AnswerCreated",
      "type": "event"
    },
    {
      "constant": false,
      "inputs": [
        {
          "name": "proposedMember",
          "type": "address"
        },
        {
          "name": "addAddress",
          "type": "bool"
        }
      ],
      "name": "newProposal",
      "outputs": [],
      "payable": false,
      "stateMutability": "nonpayable",
      "type": "function"
    },
    {
      "constant": false,
      "inputs": [
        {
          "name": "proposedMember",
          "type": "address"
        },
        {
          "name": "add",
          "type": "bool"
        },
        {
          "name": "support",
          "type": "bool"
        }
      ],
      "name": "voteOnMembership",
      "outputs": [],
      "payable": false,
      "stateMutability": "nonpayable",
      "type": "function"
    },
    {
      "constant": false,
      "inputs": [
        {
          "name": "proposedMember",
          "type": "address"
        },
        {
          "name": "add",
          "type": "bool"
        }
      ],
      "name": "executeProposal",
      "outputs": [],
      "payable": false,
      "stateMutability": "nonpayable",
      "type": "function"
    },
    {
      "constant": false,
      "inputs": [
        {
          "name": "qHash",
          "type": "uint256"
        },
        {
          "name": "aHash",
          "type": "uint256"
        }
      ],
      "name": "addAnswer",
      "outputs": [],
      "payable": false,
      "stateMutability": "nonpayable",
      "type": "function"
    },
    {
      "constant": false,
      "inputs": [
        {
          "name": "_qHash",
          "type": "uint256"
        },
        {
          "name": "_aHash",
          "type": "uint256"
        }
      ],
      "name": "addAnswerUpvote",
      "outputs": [],
      "payable": false,
      "stateMutability": "nonpayable",
      "type": "function"
    },
    {
      "constant": false,
      "inputs": [
        {
          "name": "_qHash",
          "type": "uint256"
        }
      ],
      "name": "distributeBounty",
      "outputs": [],
      "payable": false,
      "stateMutability": "nonpayable",
      "type": "function"
    },
    {
      "constant": false,
      "inputs": [
        {
          "name": "_qHash",
          "type": "uint256"
        },
        {
          "name": "minExecutionDate",
          "type": "uint256"
        }
      ],
      "name": "collectBounty",
      "outputs": [],
      "payable": true,
      "stateMutability": "payable",
      "type": "function"
    },
    {
      "constant": true,
      "inputs": [
        {
          "name": "q_hash",
          "type": "uint256"
        }
      ],
      "name": "get",
      "outputs": [
        {
          "name": "bounty",
          "type": "uint256"
        },
        {
          "name": "askerAddr",
          "type": "address"
        }
      ],
      "payable": false,
      "stateMutability": "view",
      "type": "function"
    }
  ],
  "bytecode": "0x608060405261025860045534801561001657600080fd5b5060016000803373ffffffffffffffffffffffffffffffffffffffff1673ffffffffffffffffffffffffffffffffffffffff16815260200190815260200160002060006101000a81548160ff0219169083151502179055506112b98061007d6000396000f300608060405260043610610099576000357c0100000000000000000000000000000000000000000000000000000000900463ffffffff168063036fb9e91461009e578063132aaa59146100c857806331b1b978146101235780636fed0659146101c257806370abe7cd146102115780639507d39a14610260578063b7f929a6146102d4578063bc10a77e1461030b578063c4db6a3014610342575b600080fd5b6100c6600480360381019080803590602001909291908035906020019092919050505061036f565b005b3480156100d457600080fd5b50610121600480360381019080803573ffffffffffffffffffffffffffffffffffffffff1690602001909291908035151590602001909291908035151590602001909291905050506104e1565b005b34801561012f57600080fd5b5061014e60048036038101908080359060200190929190505050610692565b604051808881526020018781526020018673ffffffffffffffffffffffffffffffffffffffff1673ffffffffffffffffffffffffffffffffffffffff168152602001858152602001848152602001831515151581526020018215151515815260200197505050505050505060405180910390f35b3480156101ce57600080fd5b5061020f600480360381019080803573ffffffffffffffffffffffffffffffffffffffff16906020019092919080351515906020019092919050505061070e565b005b34801561021d57600080fd5b5061025e600480360381019080803573ffffffffffffffffffffffffffffffffffffffff169060200190929190803515159060200190929190505050610955565b005b34801561026c57600080fd5b5061028b60048036038101908080359060200190929190505050610d41565b604051808381526020018273ffffffffffffffffffffffffffffffffffffffff1673ffffffffffffffffffffffffffffffffffffffff1681526020019250505060405180910390f35b3480156102e057600080fd5b506103096004803603810190808035906020019092919080359060200190929190505050610d9b565b005b34801561031757600080fd5b506103406004803603810190808035906020019092919080359060200190929190505050610fcb565b005b34801561034e57600080fd5b5061036d600480360381019080803590602001909291905050506111d1565b005b816005600084815260200190815260200160002060000181905550346005600084815260200190815260200160002060010181905550336005600084815260200190815260200160002060020160006101000a81548173ffffffffffffffffffffffffffffffffffffffff021916908373ffffffffffffffffffffffffffffffffffffffff16021790555060006005600084815260200190815260200160002060070160006101000a81548160ff02191690831515021790555060016005600084815260200190815260200160002060070160016101000a81548160ff021916908315150217905550600060056000848152602001908152602001600020600601819055508060056000848152602001908152602001600020600501819055503373ffffffffffffffffffffffffffffffffffffffff167ff027b0a3af9e2163afcedff8800bfbdc924bb64582a3d8b58d26559aaa189795836040518082815260200191505060405180910390a25050565b6000821561052f57600160008573ffffffffffffffffffffffffffffffffffffffff1673ffffffffffffffffffffffffffffffffffffffff1681526020019081526020016000209050610571565b600260008573ffffffffffffffffffffffffffffffffffffffff1673ffffffffffffffffffffffffffffffffffffffff16815260200190815260200160002090505b8060040160019054906101000a900460ff16151561058e57600080fd5b8060050160003373ffffffffffffffffffffffffffffffffffffffff1673ffffffffffffffffffffffffffffffffffffffff16815260200190815260200160002060009054906101000a900460ff161515156105e957600080fd5b60018160050160003373ffffffffffffffffffffffffffffffffffffffff1673ffffffffffffffffffffffffffffffffffffffff16815260200190815260200160002060006101000a81548160ff0219169083151502179055508060020160008154809291906001019190505550811561067657806003016000815480929190600101919050555061068c565b8060030160008154809291906001900391905055505b50505050565b60056020528060005260406000206000915090508060000154908060010154908060020160009054906101000a900473ffffffffffffffffffffffffffffffffffffffff16908060050154908060060154908060070160009054906101000a900460ff16908060070160019054906101000a900460ff16905087565b6000811561075c57600160008473ffffffffffffffffffffffffffffffffffffffff1673ffffffffffffffffffffffffffffffffffffffff168152602001908152602001600020905061079e565b600260008473ffffffffffffffffffffffffffffffffffffffff1673ffffffffffffffffffffffffffffffffffffffff16815260200190815260200160002090505b8060040160019054906101000a900460ff1680156107bf5750806001015442115b80156107d957508060040160009054906101000a900460ff165b15156107e457600080fd5b60008160040160006101000a81548160ff021916908315150217905550600081600301541380156108125750815b156108a95760016000808360000160009054906101000a900473ffffffffffffffffffffffffffffffffffffffff1673ffffffffffffffffffffffffffffffffffffffff1673ffffffffffffffffffffffffffffffffffffffff16815260200190815260200160002060006101000a81548160ff021916908315150217905550600360008154809291906001019190505550610950565b600081600301541380156108bb575081155b1561094f5760008060008360000160009054906101000a900473ffffffffffffffffffffffffffffffffffffffff1673ffffffffffffffffffffffffffffffffffffffff1673ffffffffffffffffffffffffffffffffffffffff16815260200190815260200160002060006101000a81548160ff021916908315150217905550600360008154809291906001900391905055505b5b505050565b8015610b4e57600160008373ffffffffffffffffffffffffffffffffffffffff1673ffffffffffffffffffffffffffffffffffffffff16815260200190815260200160002060040160019054906101000a900460ff161580610a045750600160008373ffffffffffffffffffffffffffffffffffffffff1673ffffffffffffffffffffffffffffffffffffffff16815260200190815260200160002060040160009054906101000a900460ff16155b1515610a0f57600080fd5b60c0604051908101604052808373ffffffffffffffffffffffffffffffffffffffff168152602001603c6004540242018152602001600081526020016000815260200160011515815260200160011515815250600160008473ffffffffffffffffffffffffffffffffffffffff1673ffffffffffffffffffffffffffffffffffffffff16815260200190815260200160002060008201518160000160006101000a81548173ffffffffffffffffffffffffffffffffffffffff021916908373ffffffffffffffffffffffffffffffffffffffff16021790555060208201518160010155604082015181600201556060820151816003015560808201518160040160006101000a81548160ff02191690831515021790555060a08201518160040160016101000a81548160ff021916908315150217905550905050610d3d565b600260008373ffffffffffffffffffffffffffffffffffffffff1673ffffffffffffffffffffffffffffffffffffffff16815260200190815260200160002060040160019054906101000a900460ff161580610bf75750600260008373ffffffffffffffffffffffffffffffffffffffff1673ffffffffffffffffffffffffffffffffffffffff16815260200190815260200160002060040160009054906101000a900460ff16155b1515610c0257600080fd5b60c0604051908101604052808373ffffffffffffffffffffffffffffffffffffffff168152602001603c6004540242018152602001600081526020016000815260200160011515815260200160011515815250600260008473ffffffffffffffffffffffffffffffffffffffff1673ffffffffffffffffffffffffffffffffffffffff16815260200190815260200160002060008201518160000160006101000a81548173ffffffffffffffffffffffffffffffffffffffff021916908373ffffffffffffffffffffffffffffffffffffffff16021790555060208201518160010155604082015181600201556060820151816003015560808201518160040160006101000a81548160ff02191690831515021790555060a08201518160040160016101000a81548160ff0219169083151502179055509050505b5050565b60008060056000848152602001908152602001600020600101546005600085815260200190815260200160002060020160009054906101000a900473ffffffffffffffffffffffffffffffffffffffff1691509150915091565b60006005600084815260200190815260200160002060070160019054906101000a900460ff168015610dee57506005600084815260200190815260200160002060070160009054906101000a900460ff16155b1515610df957600080fd5b6005600084815260200190815260200160002060040160008381526020019081526020016000205490506005600084815260200190815260200160002060030181815481101515610e4657fe5b906000526020600020906005020160030160009054906101000a900460ff168015610eed57506005600084815260200190815260200160002060030181815481101515610e8f57fe5b906000526020600020906005020160040160003373ffffffffffffffffffffffffffffffffffffffff1673ffffffffffffffffffffffffffffffffffffffff16815260200190815260200160002060009054906101000a900460ff16155b1515610ef857600080fd5b6005600084815260200190815260200160002060030181815481101515610f1b57fe5b90600052602060002090600502016002016000815480929190600101919050555060016005600085815260200190815260200160002060030182815481101515610f6157fe5b906000526020600020906005020160040160003373ffffffffffffffffffffffffffffffffffffffff1673ffffffffffffffffffffffffffffffffffffffff16815260200190815260200160002060006101000a81548160ff021916908315150217905550505050565b6005600083815260200190815260200160002060070160019054906101000a900460ff16801561101c57506005600083815260200190815260200160002060070160009054906101000a900460ff16155b151561102757600080fd5b600560008381526020019081526020016000206003016080604051908101604052803373ffffffffffffffffffffffffffffffffffffffff16815260200183815260200160008152602001600115158152509080600181540180825580915050906001820390600052602060002090600502016000909192909190915060008201518160000160006101000a81548173ffffffffffffffffffffffffffffffffffffffff021916908373ffffffffffffffffffffffffffffffffffffffff160217905550602082015181600101556040820151816002015560608201518160030160006101000a81548160ff02191690831515021790555050505060056000838152602001908152602001600020600601546005600084815260200190815260200160002060040160008381526020019081526020016000208190555060056000838152602001908152602001600020600601600081548092919060010191905055503373ffffffffffffffffffffffffffffffffffffffff167f4a04eec42401b398fed1b893063fd5e8a70b34609adaa7568bfd1ecc5430131a60405160405180910390a25050565b6005600082815260200190815260200160002060070160019054906101000a900460ff16801561122257506005600082815260200190815260200160002060070160009054906101000a900460ff16155b151561122d57600080fd5b3373ffffffffffffffffffffffffffffffffffffffff166108fc60056000848152602001908152602001600020600101549081150290604051600060405180830381858888f19350505050158015611289573d6000803e3d6000fd5b50505600a165627a7a7230582053c2b6e87a3c8adb3e3d4816be538c806dbf154e515776421433459309f1326c0029",
  "source": "pragma solidity ^0.4.21;\n\ncontract BountyDistribution {\n    // only employees may alter\n    modifier onlyMembers {\n        //require(membership[msg.sender]); \n        _;\n    }\n\n    event QuestionCreated(address indexed _address, uint256 qHash); \n    event AnswerCreated(address indexed _address); \n\n    // Congress Variables/Structs\n    mapping (address => bool) membership; \n    mapping (address => MemberProposal) addProposals; \n    mapping (address => MemberProposal) removeProposals; \n\n    uint numMembers; \n    uint debatingPeriodInMinutes = 600; \n\n    struct MemberProposal { \n        address proposedMember; \n        uint minExecutionDate; \n        uint numberOfVotes; \n        int currentResult; \n        bool open; \n        bool isValid;\n        \n        mapping (address => bool) voted; \n    }\n\n    // Q&A Variables/Structs\n    struct Question {\n        uint256 hash;\n        uint256 bounty; // denominated in WEI. 1 ether = 10^18 wei\n        address askerAddr;\n        Answer[] answers;\n        mapping(uint256 => uint256) indexes; \n        uint minExecutionDate; \n\n        uint numAnswers; \n        bool settled;\n        bool isValue; // checks for existence of key\n    }\n\n    struct Answer {\n        address answererAddr; \n        uint256 answerHash; \n        \n        uint256 numUpvotes; \n        bool isValue;\n        mapping(address => bool) voted; \n    }\n\n    mapping (uint256 => Question) public questions;\n\n    constructor() public {\n        membership[msg.sender] = true; \n    }\n\n    // Membership Functions\n    function newProposal(address proposedMember, bool addAddress) onlyMembers public {\n        if (addAddress) {\n            require(!addProposals[proposedMember].isValid || !addProposals[proposedMember].open);\n            addProposals[proposedMember] = MemberProposal({\n                proposedMember: proposedMember,\n                minExecutionDate: now + debatingPeriodInMinutes * 1 minutes,\n                numberOfVotes: 0,\n                currentResult: 0,\n                open: true,\n                isValid: true\n            });\n        } else {\n            require(!removeProposals[proposedMember].isValid || !removeProposals[proposedMember].open);\n            removeProposals[proposedMember] = MemberProposal({\n                proposedMember: proposedMember,\n                minExecutionDate: now + debatingPeriodInMinutes * 1 minutes,\n                numberOfVotes: 0,\n                currentResult: 0,\n                open: true,\n                isValid: true\n            });\n        }\n    }\n\n    function voteOnMembership(address proposedMember, bool add, bool support) onlyMembers public {\n        MemberProposal storage p; \n        if (add) { \n            p = addProposals[proposedMember];\n        } else {\n            p = removeProposals[proposedMember]; \n        }\n        require (p.isValid); \n\n        require(!p.voted[msg.sender]);\n\n        p.voted[msg.sender] = true; \n        p.numberOfVotes++; \n        if (support) {\n            p.currentResult++; \n        } else {\n            p.currentResult--; \n        }\n    }\n\n    function executeProposal(address proposedMember, bool add) public {\n        MemberProposal storage p; \n        if (add) { \n            p = addProposals[proposedMember];\n        } else {\n            p = removeProposals[proposedMember]; \n        }\n        require (p.isValid && now > p.minExecutionDate && p.open); \n\n        p.open = false; \n\n        if (p.currentResult > 0 && add) {\n            // add member\n            membership[p.proposedMember] = true; \n            numMembers++; \n        } else if (p.currentResult > 0 && !add) {\n            membership[p.proposedMember] = false; \n            numMembers--; \n        }\n    }\n\n    // Q&A Functions\n    function addAnswer(uint256 qHash, uint256 aHash) onlyMembers public {\n        require(questions[qHash].isValue && !questions[qHash].settled);\n        questions[qHash].answers.push(Answer({\n            answererAddr: msg.sender,\n            answerHash: aHash,\n            numUpvotes: 0,\n            isValue: true\n        }));\n        questions[qHash].indexes[aHash] = questions[qHash].numAnswers; \n        questions[qHash].numAnswers++; \n\n        emit AnswerCreated(msg.sender); \n    }\n\n    function addAnswerUpvote(uint256 _qHash, uint256 _aHash) onlyMembers public { \n        require(questions[_qHash].isValue && !questions[_qHash].settled);\n\n        uint256 idx = questions[_qHash].indexes[_aHash]; \n        require(questions[_qHash].answers[idx].isValue && !questions[_qHash].answers[idx].voted[msg.sender]);\n\n        questions[_qHash].answers[idx].numUpvotes++; \n        questions[_qHash].answers[idx].voted[msg.sender] = true; \n    }\n\n    function distributeBounty(uint256 _qHash) onlyMembers public {\n        require(questions[_qHash].isValue && !questions[_qHash].settled);\n        //require(now > questions[_qHash].minExecutionDate); \n\n        msg.sender.transfer(questions[_qHash].bounty); \n\n        /*\n\n        if (questions[_qHash].numAnswers == 0) {\n            refundBounty(_qHash); \n        } else {\n            address highestAddress = questions[_qHash].answers[0].answererAddr; \n            uint numUpvotes = questions[_qHash].answers[0].numUpvotes;\n\n            for(uint i = 1; i < questions[_qHash].numAnswers; i++)\n            {\n                if (questions[_qHash].answers[i].numUpvotes > numUpvotes) { \n                    highestAddress = questions[_qHash].answers[i].answererAddr; \n                    numUpvotes = questions[_qHash].answers[i].numUpvotes; \n                }\n            }  \n            highestAddress.transfer(questions[_qHash].bounty);\n            questions[_qHash].settled = true;\n        }*/\n    }\n\n    function refundBounty(uint256 _qHash) private {\n        require(questions[_qHash].isValue && !questions[_qHash].settled);\n        questions[_qHash].askerAddr.transfer(questions[_qHash].bounty);\n        questions[_qHash].settled = true;\n        // should we set answerHash to something?\n    }\n\n    function collectBounty(uint256 _qHash, uint minExecutionDate) onlyMembers public payable {\n        // can also use msg.sender and msg.value\n        // who controls whether bounty == msg.value\n        //require(msg.value >= _bounty);\n        \n        questions[_qHash].hash = _qHash; \n        questions[_qHash].bounty = msg.value; \n        questions[_qHash].askerAddr = msg.sender; \n        questions[_qHash].settled = false;\n        questions[_qHash].isValue = true; \n        questions[_qHash].numAnswers = 0; \n        questions[_qHash].minExecutionDate = minExecutionDate; \n\n        emit QuestionCreated(msg.sender, _qHash); \n        \n    }\n\n    function get(uint256 q_hash) view public returns (uint256 bounty, address askerAddr) {\n        return (questions[q_hash].bounty, questions[q_hash].askerAddr); \n    }\n\n    // kill function?\n    // fallback function?\n    // msg.value --> how much ether was spent in making this call\n    // error handling with whether or not questions[_qHash] exists\n    // state is required or else refunds can be manipulated\n}\n",
  "sourcePath": "/Users/claireshu/Documents/Spring 2018/CS359B/cs359b-tapioca/public/contracts/BountyDistribution.sol",
  "compiler": {
    "name": "solc",
    "version": "0.4.23+commit.124ca40d.Emscripten.clang"
  },
  "schemaVersion": "2.0.0",
  "updatedAt": "2018-06-06T08:04:03.582Z"
}